S01C00004C4544656B5F6D6567737A616B6974617373616C2E7372656321
S113000045C0000060C000005EC000005CC000008D
S11300105AC0000058C0000056C0000054C0000080
S113002052C0000050C000004EC000004CC0000090
S11300304AC0000048C0000046C0000044C00000A0
S113004058C0000040C000003EC000003CC000009A
S11300503AC0000038C0000036C0000034C00000C0
S113006032C0000030C000002EC000002CC00000D0
S11300702AC0000028C0000026C0000024C00000E0
S113008022C0000020C000001EC0000011241FBEBA
S1130090CFEFD0E1DEBFCDBF11E0A0E0B1E0E4E6F8
S11300A0F1E000E00BBF02C007900D92A230B1074F
S11300B0D9F721E0A2E0B1E001C01D92A330B2075C
S11300C0E1F714D04DC09CCF80EF87BB81BB08956E
S11300D090E1899F9001112428BB807F82BB089501
S11300E084E083BF81E087BF78940895EDDFF8DF73
S11300F0FFCF1F920F920FB60F9211240BB60F92DF
S11301002F933F934F935F936F937F938F939F931B
S1130110AF93BF93EF93FF93809102019FEF980FEA
S113012090930201811109C080910001D1DF909167
S1130130000181E0892780930001FF91EF91BF9135
S1130140AF919F918F917F916F915F914F913F916B
S11301502F910F900BBE0F900FBE0F901F9018950C
S1070160F894FFCF3D
S1050164010094
S9030000FC
